:020000040000FA
:060000000A128A110C280F
:10000800FE00030EF0000A08F1000A128A15C92E34
:100018000A128A110F280A128A11FA270A128A115B
:10002800BD000A128A11FB270A128A11BE000A12A1
:100038008A11FC270A128A11FB00B001B101B20132
:10004800B301B401B501B601B701B801B901BA01EC
:10005800BB01BC01F901FA0183010A128A119B292B
:1000680083120313AA00121131302706031D3D28FD
:100078003E284328BC01BB01B901B801B7010030D3
:10008800F6008430F7008030F8000A128A152A2614
:100098000A128A11E930F6008430F700C030F800FF
:1000A8000A128A152A260A128A11C73083120313E4
:1000B800A5003A300A128A15BE250A128A11113093
:1000C800F6008430F700D030F8000A128A152A2684
:1000D8000A128A11831203132A0A0319742875282D
:1000E800EF280A302A0203187A287B28D1283708F3
:1000F800031D7F288028A7280A30F8003C08A8009C
:10010800A9012808F4002908F5000A30F200003097
:10011800F3000A128A1546270A128A1172080A126F
:100128008A15E8250A128A11831203132A07BC00CC
:100138000130B90702303906031DA328A428EF2887
:100148000130B700EF283703031DAB28AC28EF2890
:10015800023038020318B128B228EF280A30F80014
:100168003B08A800A9012808F4002908F5000A306E
:10017800F2000030F3000A128A1546270A128A1183
:1001880072080A128A15E8250A128A1183120313C3
:100198002A07BB000130B807EF282A302A06031DBA
:1001A800D628D728DD28BC01BB01B901B801B701A1
:1001B800EF2823302A06031DE228E328EF28071535
:1001C80012150A128A15AD250A128A117030831287
:1001D8000313BE009A290130B6070A303606031DFC
:1001E800F628F7280029B60135080319FC28FE2847
:1001F8000130FF280030B500350803190429052906
:1002080030293708031D09290A291D29C830A500E6
:1002180020300A128A15BE250A128A11C9308312A3
:100228000313A50020300A128A15BE250A128A1166
:100238009A29C530A50020300A128A15BE250A124F
:100248008A11C63083120313A50020300A128A15BA
:10025800BE250A128A119A29C530A5000A30F20073
:100268000030F3003B08A800A9012808F400290879
:10027800F5000A128A1170270A128A117208303E94
:100288000A128A15BE250A128A11C6308312031370
:10029800A5000A30F2000030F3003B08A800A901CD
:1002A8002808F4002908F5000A128A1546270A12B8
:1002B8008A117208303E0A128A15BE250A128A115E
:1002C800C83083120313A5000A30F2000030F3008F
:1002D8003C08A800A9012808F4002908F5000A121A
:1002E8008A1170270A128A117208303E0A128A157A
:1002F800BE250A128A11C93083120313A5000A30D9
:10030800F2000030F3003C08A800A9012808F40016
:100318002908F5000A128A1546270A128A11720856
:10032800303E0A128A15BE250A128A1108000A12DE
:100338008A15D3250A128A1101300A128A11D42388
:100348000A128A1183120313AF0020303E06031DE0
:10035800AE29AF290A2A2F03031DB329B429E2299C
:10036800BC01BB01FF30AF003030BE000A128A1555
:10037800AD250A128A117C30F6008430F700C230AD
:10038800F8000A128A152A260A128A114D30831299
:100398000313AE001930AD004F30AC00AC0BD229BE
:1003A800AD0BD229AE0BD2290A128A15AD250A1235
:1003B8008A11313083120313BD008E2A02302F06B2
:1003C800031DE729E829EF29BC01BB01FF30AF0075
:1003D8004030BE00D82903302F06031DF429F52923
:1003E800FC29BC01BB01FF30AF005030BE00D8294A
:1003F80004302F06031D012A022A8E2A6030BE000F
:100408000A128A15AD250A128A118E2A70303E0604
:10041800031D0F2A102A352A04302F06031D152A1A
:10042800162A232A1E30BC073C303C02031C1D2A16
:100438001E2A8E2A0130BB073C30BC028E2A0530AA
:100448002F06031D282A292A2C2A8030BE008E2A2E
:1004580006302F06031D312A322A8E2A9030BE001C
:100468008E2A80303E06031D3A2A3B2A8E2A043003
:100478002F06031D402A412A8E2A121507157030AF
:10048800BE008E2A0A128A1195260A128A110A12A9
:100498008A15AD250A128A11203083120313BE0073
:1004A800B02A0A128A15FD250A128A11B02A3D08B7
:1004B800A7002F080A128A1134200A128A11B02ABA
:1004C8003D08A7002F080A128A1134200A128A113F
:1004D800B02A3D08A7002F080A128A11B8220A126A
:1004E8008A11B02A0A128A1103270A128A11B02A1D
:1004F8000A128A11F5240A128A11B02A0A128A15D8
:1005080088250A128A11B02A12110711B02A12116D
:1005180007114B2A831203133E08103A0319462A7F
:10052800303A0319552A103A03195B2A703A03190D
:10053800642A103A03196D2A303A0319822A103AAC
:1005480003197C2AF03A0319882A103A03198B2ACE
:10055800303A0319762AB02AFF3083120313BD00FC
:10056800A0290A128A110C2883120313A80031301B
:100578002706031DC02AC12AC92AB001B101B40146
:100588000A128A15AD250A128A116030F6008430E5
:10059800F7008030F8000A128A152A260A128A11F2
:1005A800EF30F6008430F700C030F8000A128A15E0
:1005B8002A260A128A112230F6008430F700D03039
:1005C800F8000A128A152A260A128A112A3083127A
:1005D800031328060319F12AF22A1D2B23302806B3
:1005E8000319F72AF82A1D2B280A0319FC2AFD2AC1
:1005F8001D2B033034020318022B032B472B310821
:10060800F3003008F2000A30F4000030F5000A1256
:100618008A11D5270A128A11831203132808720730
:10062800B0000030031801307307B1000130B4077F
:10063800472B2A302806031D222B232B272BB001FA
:10064800B101B401472B23302806031D2C2B2D2B79
:10065800472B00303102B53003193002031C352B0B
:10066800362B3A2BB430B0000030B1003C30BA0021
:1006780012150A128A15AD250A128A11A0308312A2
:100688000313BE00D32B0130B3070A303306031D12
:100698004E2B4F2B582BB30132080319542B562BD2
:1006A8000130572B0030B200320803195C2B5D2B48
:1006B8007A2BC730A50020300A128A15BE250A12E7
:1006C8008A11C83083120313A50020300A128A1534
:1006D800BE250A128A11C93083120313A5002030DF
:1006E8000A128A15BE250A128A11D32BC730A50013
:1006F8006430F2000030F3003108F5003008F400EF
:100708000A128A1504270A128A117208303E0A1240
:100718008A15BE250A128A11C83083120313A50050
:100728000A30A0000030A1000A30F2000030F300C7
:100738003108F5003008F4000A128A1504270A1255
:100748008A11730883120313A3007208A2000A1205
:100758008A158F260A128A11831203132008303E45
:100768000A128A15BE250A128A11C9308312031388
:10077800A5000A30A0000030A1003108A30030080D
:10078800A2000A128A158F260A128A1183120313ED
:100798002008303E0A128A15BE250A128A1108005E
:1007A800F4000A128A11DA250A128A11F50074086F
:1007B800031DDF2BE02BE22B7508F62B750A0319B6
:1007C800E62BE72BEE2B7B080319EB2BEC2BEE2B00
:1007D800FB01E02B750A031DF22BF32BF52B0130DF
:1007E800FB00FF300800FA308316031392008C14C4
:1007F800831203131211080053344534543420343F
:10080800543449344D344534203428344D344D342F
:100818003A3453345334293400342A343A34433480
:100828004C344534413452342034203423343A345F
:100838005334543441345234543400342A343A341E
:1008480043344C34453441345234203423343A341C
:1008580045344E34543445345234003445346E34BF
:100868006A346F347934203479346F34753472349F
:1008780020344D34653461346C34003434342E34CF
:10088800533454344134523454342F34523445346C
:10089800533455344D34453400344D34693463345D
:1008A80072346F34773461347634653420344F349D
:1008B800763465346E34003453344534543420343B
:1008C800543445344D34503420343C342A34433481
:1008D8003E34003433342E34203443346F346E3491
:1008E800763465346334743469346F346E34003468
:1008F80050346F3477346534723420343D342034C6
:100908003934303430345734003450345234453468
:100918002D34483445344134543449344E34473402
:10092800003450346F3477346534723469346E343B
:10093800673420344F344E340034543449344D3401
:100948004534203455345034213421342134003492
:10095800543449344D3445342034523465346D347C
:1009680020343A34003432342E342034473472344C
:1009780069346C346C34003431342E3420344D34C2
:100988006934633472346F34003434342E34203490
:100998005334743461347234743400345434493404
:1009A8004D34453420343D342034003435342E342D
:1009B80050344134553453344534003436342E34AD
:1009C800533454344F3450340034543449344D344F
:1009D80045343A340034543445344D3450343D347D
:1009E8000034D230F6008430F7008130F8000A1263
:1009F8008A152A260A128A11893083120313A50040
:100A08000A30F2000030F3003B08A700A8012708CD
:100A1800F4002808F5000A128A1170270A128A11B0
:100A28007208303E0A128A15BE250A128A118A30C7
:100A380083120313A5000A30F2000030F3003B08CC
:100A4800A700A8012708F4002808F5000A128A154B
:100A580046270A128A117208303E0A128A15BE25E4
:100A68000A128A118B3083120313A5003A300A1236
:100A78008A15BE250A128A118C3083120313A50029
:100A88000A30F2000030F3003C08A700A80127084C
:100A9800F4002808F5000A128A1170270A128A1130
:100AA8007208303E0A128A15BE250A128A118D3044
:100AB80083120313A5000A30F2000030F3003C084B
:100AC800A700A8012708F4002808F5000A128A15CB
:100AD80046270A128A117208303E0A128A15BE2564
:100AE8000A128A114230F6008430F700C230F8004A
:100AF8000A128A152A260A128A11DA30F600843078
:100B0800F7009230F8000A128A152A260A128A116A
:100B1800E230F6008430F700D230F8000A128A1565
:100B28002A260A128A11831203133B08031D9D2DDE
:100B38009E2DD92D3C08031DA22DA32DD92D0A12B7
:100B48008A15AD250A128A1183120313121107118F
:100B5800A130F6008430F700C430F8000A128A1574
:100B68002A260A128A113230F6008430F7009030B3
:100B7800F8000A128A152A260A128A1133308312BB
:100B88000313A900BB30A800DF30A700A70BCA2DAC
:100B9800A80BCA2DA90BCA2D0A128A15AD250A124F
:100BA8008A11203083120313BE0008008312031336
:100BB80088110815881408146430F2000030F30016
:100BC800FF30F2070318F30AFF30F307720A031D18
:100BD800F12D730A031DF12DF22DE42D8312031359
:100BE8000618F72DF82DFA2D0130942E8618FD2DB4
:100BF800FE2D002E0230942E0619032E042E062EEA
:100C08000330942E88150811881408146430F200F3
:100C18000030F300FF30F2070318F30AFF30F30740
:100C28007308803AFF0080307F02031D1D2E0130BB
:100C380072020318202E212E0E2E8312031306187B
:100C4800262E272E292E0430942E86182C2E2D2E53
:100C58002F2E0530942E0619322E332E352E0630BF
:100C6800942E88150815881008146430F200003096
:100C7800F300FF30F2070318F30AFF30F307730895
:100C8800803AFF0080307F02031D4C2E0130720233
:100C980003184F2E502E3D2E831203130618552E7F
:100CA800562E582E0730942E86185B2E5C2E5E2EFC
:100CB8000830942E0619612E622E642E0930942E67
:100CC80088150815881408106430F2000030F30005
:100CD800FF30F2070318F30AFF30F3077308803A6E
:100CE800FF0080307F02031D7B2E01307202031843
:100CF8007E2E7F2E6C2E831203130618842E852ECB
:100D0800872E2A30942E86188A2E8B2E8D2E003010
:100D1800942E0619902E912E932E2330942EFF3068
:100D2800080083120313AA012A08803EA500FF3099
:100D38000A128A15BE250A128A1103308312031378
:100D4800A9008A30A8005530A700A70BA92EA80B28
:100D5800A92EA90BA92E013083120313AA0710305C
:100D68002A02031CB82EB92E982E9530F60084302E
:100D7800F700C330F8000A128A152A260A128A11C7
:100D88005130F6008430F7009230F8000A128A15C4
:100D98002A260A128A1183120313AB012B08D03EAC
:100DA800A500FF300A128A15BE250A128A110330DF
:100DB80083120313A9008A30A8005530A700A70B97
:100DC800E32EA80BE32EA90BE32E013083120313A5
:100DD800AB0710302B02031CF22EF32ED22E1A3042
:100DE80083120313A9005E30A8006D30A700A70B7B
:100DF800FB2EA80BFB2EA90BFB2E022F0800893017
:100E0800F6008430F7008230F8000A128A152A2684
:100E18000A128A11AC30F6008430F7009030F800DE
:100E28000A128A152A260A128A119A308312031383
:100E3800A5000A30F2000030F3003A08A700A80124
:100E48002708F4002808F5000A128A1170270A12E8
:100E58008A117208303E0A128A15BE250A128A11B2
:100E68009B3083120313A5000A30F2000030F30010
:100E78003A08A700A8012708F4002808F5000A1274
:100E88008A1546270A128A117208303E0A128A15F4
:100E9800BE250A128A119C3083120313A5007330F1
:100EA8000A128A15BE250A128A11831203133A08F8
:100EB800031D5F2F602F6F2F12118C10BC01BB0117
:100EC8000A128A15AD250A128A11303083120313CB
:100ED800BE003130BD00080083120313A101F31FC7
:100EE800762F772F7E2FF209F309F20A0319F30AF6
:100EF8000130A100F51F812F822F892FF409F509F0
:100F0800F40A0319F50A0130A106A201A301720827
:100F180073040319902F912FC62F0130A0009D2F25
:100F280001300310F20DF30DFF3E031D952F013024
:100F3800A007F31FA02FA12F942F01300310A20D9B
:100F4800A30DFF3E031DA22F73087502031DAE2FCC
:100F580072087402031CB12FB22FB92F7208F40261
:100F68007308031CF503F502221401300310F30C77
:100F7800F20CFF3E031DBA2F0130A002031DC52F3E
:100F8800C62FA12F21080319CA2FCB2FD02FA209B2
:100F9800A309A20A0319A30A2308F3002208F200EE
:100FA8000800F601F701721CDA2FDB2FE12F740815
:100FB800F6070318F70A7508F70701300310F40D50
:100FC800F50DFF3E031DE22F01300310F30CF20C68
:100FD800FF3E031DE92F72087304031DF42FF52F3C
:100FE800D72F7708F3007608F2000800FF34103492
:020FF8000134C2
:10100000FF1B0A2883137F1883170008840A03191B
:10101000FF0A08007F087F398A000408840A031940
:04102000FF0A820041
:101B10001E3083120313BC00BB0112150715703071
:101B2000BE000800831603138801091189100A12E8
:101B30008A159D270A128A150800831603130608C2
:101B4000073886000808F0398800811383120313D0
:101B500088150815881408140800F20101300A12CB
:101B60008A1559260A128A150430F7003D30F6000E
:101B7000F60BB82DF70BB82DBD2D080083120313FB
:101B8000A600F20125080A128A1559260A128A159A
:101B9000F201F20A8312031326080A128A15592643
:101BA0000A128A1508000A128A1592250A128A1545
:101BB0000A128A159D250A128A150A128A11F7231C
:101BC0000A128A158316031307110B178B170800C7
:101BD00083120313A100A001211CEF2DF02DF22D83
:101BE0007808A0070310F80D0310A10C2108031DAD
:101BF000FA2DFB2DEC2D20080800C030F6008430B3
:101C0000F7008330F8000A128A152A260A128A156C
:101C1000B730F6008430F700C330F8000A128A1596
:101C20002A260A128A156E30F6008430F7009330A7
:101C3000F8000A128A152A260A128A15C930F600F7
:101C40008430F700D330F8000A128A152A260A12C7
:101C50008A150800F20178080A128A1559260A1214
:101C60008A15482EF201F20A7708FF0076088400F0
:101C70000A128A1500200A128A150A128A15592694
:101C80000A128A150130F6070318F70A0030F70721
:101C9000770883120313FF00760884000A128A155E
:101CA00000200A128A15003A031D572E582E322E94
:101CB0000800F50072185D2E612E831203130915BA
:101CC000642E8312031309117508F03988008914F2
:101CD000A630F300F30B6A2E000083120313891061
:101CE00075080F39F30003300310F30DFF3E031D99
:101CF000742E0310730D88008914A630F300F30BC3
:101D00007F2E00008312031389101B30F4009E30D5
:101D1000F300F30B892EF40B892E000008008312C8
:101D20000313200821040319962E972EC42E013088
:101D3000A400A32E01300310A00DA10DFF3E031D32
:101D40009B2E0130A407A11FA62EA72E9A2E210894
:101D50002302031DAD2E20082202031CB02EB12E3B
:101D6000B72E2008A2022108031CA303A3020130FE
:101D70000310A10CA00CFF3E031DB82E0130A402DD
:101D8000031DC32EC42EA72E2308A1002208A000E5
:101D90000800831203138C1CCE2ECF2EFD2E013093
:101DA000F9070318FA0A0030FA07203079064E3096
:101DB00003197A06031DDD2EDE2EFC2EF901FA0131
:101DC0003C080319E42EE52EE72E0130BC023C0846
:101DD000031DEB2EEC2EF52E3B080319F02EF12EF1
:101DE000F52E0130BB023C30BC003A080319F92E35
:101DF000FA2EFC2E0130BA028C1071088A00700E87
:101E00008300FE0E7E0E0900F601F70172087304CE
:101E100003190B2F0C2F412F0130F800182F013020
:101E20000310F20DF30DFF3E031D102F0130F807D4
:101E3000F31F1B2F1C2F0F2F01300310F60DF70D72
:101E4000FF3E031D1D2F73087502031D292F720805
:101E50007402031C2C2F2D2F342F7208F4027308E8
:101E6000031CF503F502761401300310F30CF20C99
:101E7000FF3E031D352F0130F802031D402F412F77
:101E80001C2F7708F3007608F2000800F701F51F11
:101E90004A2F4B2F522FF409F509F40A0319F50ABA
:101EA0000130F700F31F552F562F5B2FF209F3096E
:101EB000F20A0319F30A720873040319602F612FE1
:101EC0008E2F0130F6006D2F01300310F20DF30D4F
:101ED000FF3E031D652F0130F607F31F702F712F92
:101EE000642F73087502031D772F72087402031C98
:101EF0007A2F7B2F812F7208F4027308031CF503DD
:101F0000F50201300310F30CF20CFF3E031D822F8B
:101F10000130F602031D8D2F8E2F712F77080319C4
:101F2000922F932F982FF409F509F40A0319F50A53
:101F30007508F3007408F2000800C330F700CD30D4
:101F4000F600F60BA12FF70BA12FF20133300A1286
:101F50008A1559260A128A151B30F7009E30F600A2
:101F6000F60BB02FF70BB02F0000F20133300A123E
:101F70008A1559260A128A15A630F600F60BBE2FCE
:101F80000000F20133300A128A1559260A128A1506
:101F9000C92FCA2F0000F20102300A128A155926F1
:101FA0000A128A15A630F600F60BD42F0000F201B3
:101FB00028300A128A1559260A128A15A630F60008
:101FC000F60BE02F0000F20101300A128A155926A3
:101FD0000A128A150430F7003D30F600F60BEE2F9A
:101FE000F70BEE2FF32FF2010C300A128A15592647
:101FF0000A128A15A630F600F60BFC2F0000080026
:02400E00FB3F76
:00000001FF
